{
  "contractName": "Battleship",
  "abi": [
    {
      "inputs": [],
      "stateMutability": "nonpayable",
      "type": "constructor"
    },
    {
      "anonymous": false,
      "inputs": [
        {
          "indexed": true,
          "internalType": "uint256",
          "name": "gameId",
          "type": "uint256"
        },
        {
          "indexed": false,
          "internalType": "address",
          "name": "better",
          "type": "address"
        },
        {
          "indexed": false,
          "internalType": "uint256",
          "name": "amount",
          "type": "uint256"
        },
        {
          "indexed": false,
          "internalType": "bool",
          "name": "amountSet",
          "type": "bool"
        }
      ],
      "name": "BetPlaced",
      "type": "event"
    },
    {
      "anonymous": false,
      "inputs": [
        {
          "indexed": true,
          "internalType": "uint256",
          "name": "gameId",
          "type": "uint256"
        },
        {
          "indexed": false,
          "internalType": "address",
          "name": "host",
          "type": "address"
        },
        {
          "indexed": false,
          "internalType": "address",
          "name": "guest",
          "type": "address"
        }
      ],
      "name": "GameJoined",
      "type": "event"
    },
    {
      "anonymous": false,
      "inputs": [
        {
          "indexed": true,
          "internalType": "uint256",
          "name": "gameId",
          "type": "uint256"
        },
        {
          "indexed": false,
          "internalType": "address",
          "name": "host",
          "type": "address"
        },
        {
          "indexed": false,
          "internalType": "address",
          "name": "guest",
          "type": "address"
        },
        {
          "indexed": false,
          "internalType": "bytes32",
          "name": "hostRoot",
          "type": "bytes32"
        },
        {
          "indexed": false,
          "internalType": "bytes32",
          "name": "guestRoot",
          "type": "bytes32"
        }
      ],
      "name": "GameStarted",
      "type": "event"
    },
    {
      "anonymous": false,
      "inputs": [
        {
          "indexed": true,
          "internalType": "uint256",
          "name": "gameId",
          "type": "uint256"
        },
        {
          "indexed": false,
          "internalType": "address",
          "name": "player",
          "type": "address"
        },
        {
          "indexed": false,
          "internalType": "uint8[2]",
          "name": "move",
          "type": "uint8[2]"
        }
      ],
      "name": "MovePlayed",
      "type": "event"
    },
    {
      "inputs": [
        {
          "internalType": "uint256",
          "name": "",
          "type": "uint256"
        }
      ],
      "name": "gamesMap",
      "outputs": [
        {
          "components": [
            {
              "internalType": "uint256",
              "name": "gameId",
              "type": "uint256"
            },
            {
              "internalType": "enum Battleship.GameState",
              "name": "gameState",
              "type": "uint8"
            },
            {
              "internalType": "address",
              "name": "host",
              "type": "address"
            },
            {
              "internalType": "address",
              "name": "guest",
              "type": "address"
            },
            {
              "components": [
                {
                  "internalType": "uint8",
                  "name": "boardSize",
                  "type": "uint8"
                },
                {
                  "internalType": "bytes32",
                  "name": "hostRoot",
                  "type": "bytes32"
                },
                {
                  "internalType": "bytes32",
                  "name": "guestRoot",
                  "type": "bytes32"
                },
                {
                  "internalType": "uint8",
                  "name": "hostHp",
                  "type": "uint8"
                },
                {
                  "internalType": "uint8",
                  "name": "guestHp",
                  "type": "uint8"
                },
                {
                  "internalType": "uint8",
                  "name": "totalHp",
                  "type": "uint8"
                },
                {
                  "components": [
                    {
                      "internalType": "uint8",
                      "name": "oneNum",
                      "type": "uint8"
                    },
                    {
                      "internalType": "uint8",
                      "name": "twoNum",
                      "type": "uint8"
                    },
                    {
                      "internalType": "uint8",
                      "name": "threeNum",
                      "type": "uint8"
                    },
                    {
                      "internalType": "uint8",
                      "name": "fourNum",
                      "type": "uint8"
                    },
                    {
                      "internalType": "uint8",
                      "name": "fiveNum",
                      "type": "uint8"
                    }
                  ],
                  "internalType": "struct Battleship.ShipInfo",
                  "name": "shipInfo",
                  "type": "tuple"
                }
              ],
              "internalType": "struct Battleship.BoardInfo",
              "name": "boardInfo",
              "type": "tuple"
            },
            {
              "components": [
                {
                  "internalType": "uint256",
                  "name": "amount",
                  "type": "uint256"
                },
                {
                  "internalType": "uint256",
                  "name": "hostAmount",
                  "type": "uint256"
                },
                {
                  "internalType": "uint256",
                  "name": "guestAmount",
                  "type": "uint256"
                }
              ],
              "internalType": "struct Battleship.BetInfo",
              "name": "betInfo",
              "type": "tuple"
            },
            {
              "components": [
                {
                  "internalType": "bool",
                  "name": "isHostTurn",
                  "type": "bool"
                },
                {
                  "internalType": "uint8[2]",
                  "name": "hostLastMove",
                  "type": "uint8[2]"
                },
                {
                  "internalType": "uint8[2]",
                  "name": "guestLastMove",
                  "type": "uint8[2]"
                },
                {
                  "internalType": "uint256",
                  "name": "hostLastMoveTime",
                  "type": "uint256"
                },
                {
                  "internalType": "uint256",
                  "name": "guestLastMoveTime",
                  "type": "uint256"
                }
              ],
              "internalType": "struct Battleship.MoveInfo",
              "name": "moveInfo",
              "type": "tuple"
            }
          ],
          "internalType": "struct Battleship.GameInfo",
          "name": "info",
          "type": "tuple"
        },
        {
          "internalType": "uint256",
          "name": "next",
          "type": "uint256"
        }
      ],
      "stateMutability": "view",
      "type": "function"
    },
    {
      "inputs": [],
      "name": "head",
      "outputs": [
        {
          "internalType": "uint256",
          "name": "",
          "type": "uint256"
        }
      ],
      "stateMutability": "view",
      "type": "function"
    },
    {
      "inputs": [
        {
          "internalType": "uint8",
          "name": "boardSize",
          "type": "uint8"
        },
        {
          "internalType": "uint8[5]",
          "name": "shipsNum",
          "type": "uint8[5]"
        }
      ],
      "name": "createGame",
      "outputs": [],
      "stateMutability": "nonpayable",
      "type": "function"
    },
    {
      "inputs": [
        {
          "internalType": "uint8",
          "name": "gameId",
          "type": "uint8"
        }
      ],
      "name": "joinGame",
      "outputs": [],
      "stateMutability": "nonpayable",
      "type": "function"
    },
    {
      "inputs": [
        {
          "internalType": "uint8",
          "name": "gameId",
          "type": "uint8"
        },
        {
          "internalType": "uint256",
          "name": "amount",
          "type": "uint256"
        }
      ],
      "name": "placeBet",
      "outputs": [],
      "stateMutability": "nonpayable",
      "type": "function"
    },
    {
      "inputs": [
        {
          "internalType": "uint8",
          "name": "gameId",
          "type": "uint8"
        },
        {
          "internalType": "bytes32",
          "name": "merkleRoot",
          "type": "bytes32"
        }
      ],
      "name": "submitBoard",
      "outputs": [],
      "stateMutability": "nonpayable",
      "type": "function"
    },
    {
      "inputs": [
        {
          "internalType": "uint8",
          "name": "gameId",
          "type": "uint8"
        },
        {
          "internalType": "uint8[2]",
          "name": "move",
          "type": "uint8[2]"
        }
      ],
      "name": "playMove",
      "outputs": [],
      "stateMutability": "nonpayable",
      "type": "function"
    },
    {
      "inputs": [],
      "name": "getAllGames",
      "outputs": [
        {
          "components": [
            {
              "internalType": "uint256",
              "name": "gameId",
              "type": "uint256"
            },
            {
              "internalType": "enum Battleship.GameState",
              "name": "gameState",
              "type": "uint8"
            },
            {
              "internalType": "address",
              "name": "host",
              "type": "address"
            },
            {
              "internalType": "address",
              "name": "guest",
              "type": "address"
            },
            {
              "components": [
                {
                  "internalType": "uint8",
                  "name": "boardSize",
                  "type": "uint8"
                },
                {
                  "internalType": "bytes32",
                  "name": "hostRoot",
                  "type": "bytes32"
                },
                {
                  "internalType": "bytes32",
                  "name": "guestRoot",
                  "type": "bytes32"
                },
                {
                  "internalType": "uint8",
                  "name": "hostHp",
                  "type": "uint8"
                },
                {
                  "internalType": "uint8",
                  "name": "guestHp",
                  "type": "uint8"
                },
                {
                  "internalType": "uint8",
                  "name": "totalHp",
                  "type": "uint8"
                },
                {
                  "components": [
                    {
                      "internalType": "uint8",
                      "name": "oneNum",
                      "type": "uint8"
                    },
                    {
                      "internalType": "uint8",
                      "name": "twoNum",
                      "type": "uint8"
                    },
                    {
                      "internalType": "uint8",
                      "name": "threeNum",
                      "type": "uint8"
                    },
                    {
                      "internalType": "uint8",
                      "name": "fourNum",
                      "type": "uint8"
                    },
                    {
                      "internalType": "uint8",
                      "name": "fiveNum",
                      "type": "uint8"
                    }
                  ],
                  "internalType": "struct Battleship.ShipInfo",
                  "name": "shipInfo",
                  "type": "tuple"
                }
              ],
              "internalType": "struct Battleship.BoardInfo",
              "name": "boardInfo",
              "type": "tuple"
            },
            {
              "components": [
                {
                  "internalType": "uint256",
                  "name": "amount",
                  "type": "uint256"
                },
                {
                  "internalType": "uint256",
                  "name": "hostAmount",
                  "type": "uint256"
                },
                {
                  "internalType": "uint256",
                  "name": "guestAmount",
                  "type": "uint256"
                }
              ],
              "internalType": "struct Battleship.BetInfo",
              "name": "betInfo",
              "type": "tuple"
            },
            {
              "components": [
                {
                  "internalType": "bool",
                  "name": "isHostTurn",
                  "type": "bool"
                },
                {
                  "internalType": "uint8[2]",
                  "name": "hostLastMove",
                  "type": "uint8[2]"
                },
                {
                  "internalType": "uint8[2]",
                  "name": "guestLastMove",
                  "type": "uint8[2]"
                },
                {
                  "internalType": "uint256",
                  "name": "hostLastMoveTime",
                  "type": "uint256"
                },
                {
                  "internalType": "uint256",
                  "name": "guestLastMoveTime",
                  "type": "uint256"
                }
              ],
              "internalType": "struct Battleship.MoveInfo",
              "name": "moveInfo",
              "type": "tuple"
            }
          ],
          "internalType": "struct Battleship.GameInfo[]",
          "name": "",
          "type": "tuple[]"
        }
      ],
      "stateMutability": "view",
      "type": "function"
    }
  ],
  "bytecode": "0x608060405234801561000f575f80fd5b505f80819055505f6003819055505f60028190555061330b806100315f395ff3fe608060405234801561000f575f80fd5b5060043610610086575f3560e01c8063db1c45f911610059578063db1c45f914610111578063dcb3b30e1461012f578063f1ad57e81461014b578063ff498b4e1461016757610086565b80630a151c831461008a5780634ddc2fe2146100a65780638f7dcfa3146100d7578063d0ae92fb146100f5575b5f80fd5b6100a4600480360381019061009f919061234d565b610183565b005b6100c060048036038101906100bb91906123be565b610573565b6040516100ce9291906127b8565b60405180910390f35b6100df610907565b6040516100ec91906127e1565b60405180910390f35b61010f600480360381019061010a91906127fa565b61090d565b005b610119610b81565b604051610126919061295d565b60405180910390f35b6101496004803603810190610144919061297d565b610fc5565b005b610165600480360381019061016091906129dc565b6112d9565b005b610181600480360381019061017c9190612a44565b611896565b005b60048260ff1610156101ca576040517f08c379a00000000000000000000000000000000000000000000000000000000081526004016101c190612adc565b60405180910390fd5b60088260ff161115610211576040517f08c379a000000000000000000000000000000000000000000000000000000000815260040161020890612b44565b60405180910390fd5b5f805b60058160ff1610156102805760018161022d9190612b8f565b838260ff166005811061024357610242612bc3565b5b60200201602081019061025691906127fa565b6102609190612bf0565b8261026b9190612b8f565b9150808061027890612c2c565b915050610214565b505f8160ff16116102c6576040517f08c379a00000000000000000000000000000000000000000000000000000000081526004016102bd90612c9e565b60405180910390fd5b600283846102d49190612bf0565b6102de9190612ce9565b60ff168160ff161115610326576040517f08c379a000000000000000000000000000000000000000000000000000000000815260040161031d90612d63565b60405180910390fd5b5f6040518060a00160405280845f6005811061034557610344612bc3565b5b60200201602081019061035891906127fa565b60ff1681526020018460016005811061037457610373612bc3565b5b60200201602081019061038791906127fa565b60ff168152602001846002600581106103a3576103a2612bc3565b5b6020020160208101906103b691906127fa565b60ff168152602001846003600581106103d2576103d1612bc3565b5b6020020160208101906103e591906127fa565b60ff1681526020018460046005811061040157610400612bc3565b5b60200201602081019061041491906127fa565b60ff1681525090505f805f815461042a90612d81565b91905081905590505f6040518060e0016040528083815260200160016005811115610458576104576123f8565b5b81526020013373ffffffffffffffffffffffffffffffffffffffff1681526020015f73ffffffffffffffffffffffffffffffffffffffff1681526020016040518060e001604052808960ff1681526020015f80191681526020015f80191681526020018760ff1681526020018760ff1681526020018760ff16815260200186815250815260200160405180606001604052805f81526020015f81526020015f81525081526020016040518060a0016040528060011515815260200160405180604001604052805f60ff1681526020015f60ff16815250815260200160405180604001604052805f60ff1681526020015f60ff1681525081526020015f81526020015f815250815250905061056b81611bd9565b505050505050565b6001602052805f5260405f205f91509050805f016040518060e00160405290815f8201548152602001600182015f9054906101000a900460ff1660058111156105bf576105be6123f8565b5b60058111156105d1576105d06123f8565b5b81526020016001820160019054906101000a900473ffffffffffffffffffffffffffffffffffffffff1673ffffffffffffffffffffffffffffffffffffffff1673ffffffffffffffffffffffffffffffffffffffff168152602001600282015f9054906101000a900473ffffffffffffffffffffffffffffffffffffffff1673ffffffffffffffffffffffffffffffffffffffff1673ffffffffffffffffffffffffffffffffffffffff168152602001600382016040518060e00160405290815f82015f9054906101000a900460ff1660ff1660ff1681526020016001820154815260200160028201548152602001600382015f9054906101000a900460ff1660ff1660ff1681526020016003820160019054906101000a900460ff1660ff1660ff1681526020016003820160029054906101000a900460ff1660ff1660ff168152602001600482016040518060a00160405290815f82015f9054906101000a900460ff1660ff1660ff1681526020015f820160019054906101000a900460ff1660ff1660ff1681526020015f820160029054906101000a900460ff1660ff1660ff1681526020015f820160039054906101000a900460ff1660ff1660ff1681526020015f820160049054906101000a900460ff1660ff1660ff1681525050815250508152602001600882016040518060600160405290815f8201548152602001600182015481526020016002820154815250508152602001600b82016040518060a00160405290815f82015f9054906101000a900460ff1615151515815260200160018201600280602002604051908101604052809291908260028015610872576020028201915f905b82829054906101000a900460ff1660ff16815260200190600101906020825f0104928301926001038202915080841161083c5790505b50505050508152602001600282016002806020026040519081016040528092919082600280156108db576020028201915f905b82829054906101000a900460ff1660ff16815260200190600101906020825f010492830192600103820291508084116108a55790505b505050505081526020016003820154815260200160048201548152505081525050908060100154905082565b60025481565b60016005811115610921576109206123f8565b5b60015f8360ff1681526020019081526020015f205f016001015f9054906101000a900460ff166005811115610959576109586123f8565b5b14610999576040517f08c379a000000000000000000000000000000000000000000000000000000000815260040161099090612e12565b60405180910390fd5b60015f8260ff1681526020019081526020015f205f0160010160019054906101000a900473ffffffffffffffffffffffffffffffffffffffff1673ffffffffffffffffffffffffffffffffffffffff163373ffffffffffffffffffffffffffffffffffffffff1603610a40576040517f08c379a0000000000000000000000000000000000000000000000000000000008152600401610a3790612e7a565b60405180910390fd5b5f73ffffffffffffffffffffffffffffffffffffffff1660015f8360ff1681526020019081526020015f205f016002015f9054906101000a900473ffffffffffffffffffffffffffffffffffffffff1673ffffffffffffffffffffffffffffffffffffffff1614610ae6576040517f08c379a0000000000000000000000000000000000000000000000000000000008152600401610add90612ee2565b60405180910390fd5b3360015f8360ff1681526020019081526020015f205f016002015f6101000a81548173ffffffffffffffffffffffffffffffffffffffff021916908373ffffffffffffffffffffffffffffffffffffffff160217905550600260015f8360ff1681526020019081526020015f205f016001015f6101000a81548160ff02191690836005811115610b7957610b786123f8565b5b021790555050565b60605f60035467ffffffffffffffff811115610ba057610b9f612f00565b5b604051908082528060200260200182016040528015610bd957816020015b610bc66120b1565b815260200190600190039081610bbe5790505b5090505f60025490505f5b5f8214610fbc5760015f8381526020019081526020015f205f016040518060e00160405290815f8201548152602001600182015f9054906101000a900460ff166005811115610c3657610c356123f8565b5b6005811115610c4857610c476123f8565b5b81526020016001820160019054906101000a900473ffffffffffffffffffffffffffffffffffffffff1673ffffffffffffffffffffffffffffffffffffffff1673ffffffffffffffffffffffffffffffffffffffff168152602001600282015f9054906101000a900473ffffffffffffffffffffffffffffffffffffffff1673ffffffffffffffffffffffffffffffffffffffff1673ffffffffffffffffffffffffffffffffffffffff168152602001600382016040518060e00160405290815f82015f9054906101000a900460ff1660ff1660ff1681526020016001820154815260200160028201548152602001600382015f9054906101000a900460ff1660ff1660ff1681526020016003820160019054906101000a900460ff1660ff1660ff1681526020016003820160029054906101000a900460ff1660ff1660ff168152602001600482016040518060a00160405290815f82015f9054906101000a900460ff1660ff1660ff1681526020015f820160019054906101000a900460ff1660ff1660ff1681526020015f820160029054906101000a900460ff1660ff1660ff1681526020015f820160039054906101000a900460ff1660ff1660ff1681526020015f820160049054906101000a900460ff1660ff1660ff1681525050815250508152602001600882016040518060600160405290815f8201548152602001600182015481526020016002820154815250508152602001600b82016040518060a00160405290815f82015f9054906101000a900460ff1615151515815260200160018201600280602002604051908101604052809291908260028015610ee9576020028201915f905b82829054906101000a900460ff1660ff16815260200190600101906020825f01049283019260010382029150808411610eb35790505b5050505050815260200160028201600280602002604051908101604052809291908260028015610f52576020028201915f905b82829054906101000a900460ff1660ff16815260200190600101906020825f01049283019260010382029150808411610f1c5790505b505050505081526020016003820154815260200160048201548152505081525050838280610f7f90612c2c565b935060ff1681518110610f9557610f94612bc3565b5b602002602001018190525060015f8381526020019081526020015f20601001549150610be4565b82935050505090565b60026005811115610fd957610fd86123f8565b5b60015f8460ff1681526020019081526020015f205f016001015f9054906101000a900460ff166005811115611011576110106123f8565b5b14611051576040517f08c379a000000000000000000000000000000000000000000000000000000000815260040161104890612f77565b60405180910390fd5b6001151561105e83611ee2565b1515146110a0576040517f08c379a000000000000000000000000000000000000000000000000000000000815260040161109790612fdf565b60405180910390fd5b5f81116110e2576040517f08c379a00000000000000000000000000000000000000000000000000000000081526004016110d990613047565b60405180910390fd5b68056bc75e2d6310000081111561112e576040517f08c379a0000000000000000000000000000000000000000000000000000000008152600401611125906130af565b60405180910390fd5b5f60015f8460ff1681526020019081526020015f205f0160010160019054906101000a900473ffffffffffffffffffffffffffffffffffffffff1673ffffffffffffffffffffffffffffffffffffffff163373ffffffffffffffffffffffffffffffffffffffff16036111c1578160015f8560ff1681526020019081526020015f205f016008016001018190555061124f565b60015f8460ff1681526020019081526020015f205f016002015f9054906101000a900473ffffffffffffffffffffffffffffffffffffffff1673ffffffffffffffffffffffffffffffffffffffff163373ffffffffffffffffffffffffffffffffffffffff160361124e578160015f8560ff1681526020019081526020015f205f01600801600201819055505b5b60015f8460ff1681526020019081526020015f205f016008016002015460015f8560ff1681526020019081526020015f205f0160080160010154036112d457600360015f8560ff1681526020019081526020015f205f016001015f6101000a81548160ff021916908360058111156112ca576112c96123f8565b5b0217905550600190505b505050565b600460058111156112ed576112ec6123f8565b5b60015f8460ff1681526020019081526020015f205f016001015f9054906101000a900460ff166005811115611325576113246123f8565b5b1461132e575f80fd5b61133782611ee2565b611376576040517f08c379a000000000000000000000000000000000000000000000000000000000815260040161136d90612fdf565b60405180910390fd5b60015f8360ff1681526020019081526020015f205f01600b015f015f9054906101000a900460ff16801561140e575060015f8360ff1681526020019081526020015f205f0160010160019054906101000a900473ffffffffffffffffffffffffffffffffffffffff1673ffffffffffffffffffffffffffffffffffffffff163373ffffffffffffffffffffffffffffffffffffffff16145b806114ad575060015f8360ff1681526020019081526020015f205f01600b015f015f9054906101000a900460ff161580156114ac575060015f8360ff1681526020019081526020015f205f016002015f9054906101000a900473ffffffffffffffffffffffffffffffffffffffff1673ffffffffffffffffffffffffffffffffffffffff163373ffffffffffffffffffffffffffffffffffffffff16145b5b6114ec576040517f08c379a00000000000000000000000000000000000000000000000000000000081526004016114e390613117565b60405180910390fd5b60015f8360ff1681526020019081526020015f205f016003015f015f9054906101000a900460ff1660ff16815f6002811061152a57611529612bc3565b5b60200201602081019061153d91906127fa565b60ff16111580156115a1575060015f8360ff1681526020019081526020015f205f016003015f015f9054906101000a900460ff1660ff168160016002811061158857611587612bc3565b5b60200201602081019061159b91906127fa565b60ff1611155b6115e0576040517f08c379a00000000000000000000000000000000000000000000000000000000081526004016115d79061317f565b60405180910390fd5b60015f8360ff1681526020019081526020015f205f0160010160019054906101000a900473ffffffffffffffffffffffffffffffffffffffff1673ffffffffffffffffffffffffffffffffffffffff163373ffffffffffffffffffffffffffffffffffffffff160361173b57805f6002811061165f5761165e612bc3565b5b60200201602081019061167291906127fa565b60015f8460ff1681526020019081526020015f205f01600b016001015f600281106116a05761169f612bc3565b5b602091828204019190066101000a81548160ff021916908360ff160217905550806001600281106116d4576116d3612bc3565b5b6020020160208101906116e791906127fa565b60015f8460ff1681526020019081526020015f205f01600b0160010160016002811061171657611715612bc3565b5b602091828204019190066101000a81548160ff021916908360ff160217905550611892565b60015f8360ff1681526020019081526020015f205f016002015f9054906101000a900473ffffffffffffffffffffffffffffffffffffffff1673ffffffffffffffffffffffffffffffffffffffff163373ffffffffffffffffffffffffffffffffffffffff160361189157805f600281106117b9576117b8612bc3565b5b6020020160208101906117cc91906127fa565b60015f8460ff1681526020019081526020015f205f01600b016002015f600281106117fa576117f9612bc3565b5b602091828204019190066101000a81548160ff021916908360ff1602179055508060016002811061182e5761182d612bc3565b5b60200201602081019061184191906127fa565b60015f8460ff1681526020019081526020015f205f01600b016002016001600281106118705761186f612bc3565b5b602091828204019190066101000a81548160ff021916908360ff1602179055505b5b5050565b600360058111156118aa576118a96123f8565b5b60015f8460ff1681526020019081526020015f205f016001015f9054906101000a900460ff1660058111156118e2576118e16123f8565b5b14611922576040517f08c379a0000000000000000000000000000000000000000000000000000000008152600401611919906131e7565b60405180910390fd5b61192b82611ee2565b61196a576040517f08c379a000000000000000000000000000000000000000000000000000000000815260040161196190612fdf565b60405180910390fd5b60015f8360ff1681526020019081526020015f205f0160010160019054906101000a900473ffffffffffffffffffffffffffffffffffffffff1673ffffffffffffffffffffffffffffffffffffffff163373ffffffffffffffffffffffffffffffffffffffff1603611a5a575f60015f8460ff1681526020019081526020015f205f016003016001015414611a34576040517f08c379a0000000000000000000000000000000000000000000000000000000008152600401611a2b9061324f565b60405180910390fd5b8060015f8460ff1681526020019081526020015f205f0160030160010181905550611b46565b60015f8360ff1681526020019081526020015f205f016002015f9054906101000a900473ffffffffffffffffffffffffffffffffffffffff1673ffffffffffffffffffffffffffffffffffffffff163373ffffffffffffffffffffffffffffffffffffffff1603611b45575f60015f8460ff1681526020019081526020015f205f016003016002015414611b23576040517f08c379a0000000000000000000000000000000000000000000000000000000008152600401611b1a9061324f565b60405180910390fd5b8060015f8460ff1681526020019081526020015f205f01600301600201819055505b5b5f60015f8460ff1681526020019081526020015f205f016003016001015414158015611b8e57505f60015f8460ff1681526020019081526020015f205f016003016002015414155b15611bd557600460015f8460ff1681526020019081526020015f205f016001015f6101000a81548160ff02191690836005811115611bcf57611bce6123f8565b5b02179055505b5050565b5f604051806040016040528083815260200160025481525090508060015f845f015181526020019081526020015f205f820151815f015f820151815f01556020820151816001015f6101000a81548160ff02191690836005811115611c4157611c406123f8565b5b021790555060408201518160010160016101000a81548173ffffffffffffffffffffffffffffffffffffffff021916908373ffffffffffffffffffffffffffffffffffffffff1602179055506060820151816002015f6101000a81548173ffffffffffffffffffffffffffffffffffffffff021916908373ffffffffffffffffffffffffffffffffffffffff1602179055506080820151816003015f820151815f015f6101000a81548160ff021916908360ff16021790555060208201518160010155604082015181600201556060820151816003015f6101000a81548160ff021916908360ff16021790555060808201518160030160016101000a81548160ff021916908360ff16021790555060a08201518160030160026101000a81548160ff021916908360ff16021790555060c0820151816004015f820151815f015f6101000a81548160ff021916908360ff1602179055506020820151815f0160016101000a81548160ff021916908360ff1602179055506040820151815f0160026101000a81548160ff021916908360ff1602179055506060820151815f0160036101000a81548160ff021916908360ff1602179055506080820151815f0160046101000a81548160ff021916908360ff1602179055505050505060a0820151816008015f820151815f01556020820151816001015560408201518160020155505060c082015181600b015f820151815f015f6101000a81548160ff021916908315150217905550602082015181600101906002611e7f92919061213a565b50604082015181600201906002611e9792919061213a565b5060608201518160030155608082015181600401555050505060208201518160100155905050815f015160028190555060035f815480929190611ed990612d81565b91905055505050565b5f806005811115611ef657611ef56123f8565b5b60015f8460ff1681526020019081526020015f205f016001015f9054906101000a900460ff166005811115611f2e57611f2d6123f8565b5b14158015611f855750600580811115611f4a57611f496123f8565b5b60015f8460ff1681526020019081526020015f205f016001015f9054906101000a900460ff166005811115611f8257611f816123f8565b5b14155b611fc4576040517f08c379a0000000000000000000000000000000000000000000000000000000008152600401611fbb906132b7565b60405180910390fd5b60015f8360ff1681526020019081526020015f205f0160010160019054906101000a900473ffffffffffffffffffffffffffffffffffffffff1673ffffffffffffffffffffffffffffffffffffffff163373ffffffffffffffffffffffffffffffffffffffff16148061209a575060015f8360ff1681526020019081526020015f205f016002015f9054906101000a900473ffffffffffffffffffffffffffffffffffffffff1673ffffffffffffffffffffffffffffffffffffffff163373ffffffffffffffffffffffffffffffffffffffff16145b156120a857600190506120ac565b5f90505b919050565b6040518060e001604052805f81526020015f60058111156120d5576120d46123f8565b5b81526020015f73ffffffffffffffffffffffffffffffffffffffff1681526020015f73ffffffffffffffffffffffffffffffffffffffff16815260200161211a6121d1565b8152602001612127612220565b815260200161213461223e565b81525090565b826002601f016020900481019282156121c0579160200282015f5b8382111561219257835183826101000a81548160ff021916908360ff16021790555092602001926001016020815f01049283019260010302612155565b80156121be5782816101000a81549060ff02191690556001016020815f01049283019260010302612192565b505b5090506121cd9190612278565b5090565b6040518060e001604052805f60ff1681526020015f80191681526020015f80191681526020015f60ff1681526020015f60ff1681526020015f60ff16815260200161221a612293565b81525090565b60405180606001604052805f81526020015f81526020015f81525090565b6040518060a001604052805f151581526020016122596122cc565b81526020016122666122cc565b81526020015f81526020015f81525090565b5b8082111561228f575f815f905550600101612279565b5090565b6040518060a001604052805f60ff1681526020015f60ff1681526020015f60ff1681526020015f60ff1681526020015f60ff1681525090565b6040518060400160405280600290602082028036833780820191505090505090565b5f80fd5b5f60ff82169050919050565b612307816122f2565b8114612311575f80fd5b50565b5f81359050612322816122fe565b92915050565b5f80fd5b5f8190508260206005028201111561234757612346612328565b5b92915050565b5f8060c08385031215612363576123626122ee565b5b5f61237085828601612314565b92505060206123818582860161232c565b9150509250929050565b5f819050919050565b61239d8161238b565b81146123a7575f80fd5b50565b5f813590506123b881612394565b92915050565b5f602082840312156123d3576123d26122ee565b5b5f6123e0848285016123aa565b91505092915050565b6123f28161238b565b82525050565b7f4e487b71000000000000000000000000000000000000000000000000000000005f52602160045260245ffd5b60068110612436576124356123f8565b5b50565b5f81905061244682612425565b919050565b5f61245582612439565b9050919050565b6124658161244b565b82525050565b5f73ffffffffffffffffffffffffffffffffffffffff82169050919050565b5f6124948261246b565b9050919050565b6124a48161248a565b82525050565b6124b3816122f2565b82525050565b5f819050919050565b6124cb816124b9565b82525050565b60a082015f8201516124e55f8501826124aa565b5060208201516124f860208501826124aa565b50604082015161250b60408501826124aa565b50606082015161251e60608501826124aa565b50608082015161253160808501826124aa565b50505050565b61016082015f82015161254c5f8501826124aa565b50602082015161255f60208501826124c2565b50604082015161257260408501826124c2565b50606082015161258560608501826124aa565b50608082015161259860808501826124aa565b5060a08201516125ab60a08501826124aa565b5060c08201516125be60c08501826124d1565b50505050565b606082015f8201516125d85f8501826123e9565b5060208201516125eb60208501826123e9565b5060408201516125fe60408501826123e9565b50505050565b5f8115159050919050565b61261881612604565b82525050565b5f60029050919050565b5f81905092915050565b5f819050919050565b5f61264683836124aa565b60208301905092915050565b5f602082019050919050565b6126678161261e565b6126718184612628565b925061267c82612632565b805f5b838110156126ac578151612693878261263b565b965061269e83612652565b92505060018101905061267f565b505050505050565b60e082015f8201516126c85f85018261260f565b5060208201516126db602085018261265e565b5060408201516126ee606085018261265e565b50606082015161270160a08501826123e9565b50608082015161271460c08501826123e9565b50505050565b61032082015f82015161272f5f8501826123e9565b506020820151612742602085018261245c565b506040820151612755604085018261249b565b506060820151612768606085018261249b565b50608082015161277b6080850182612537565b5060a082015161278f6101e08501826125c4565b5060c08201516127a36102408501826126b4565b50505050565b6127b28161238b565b82525050565b5f610340820190506127cc5f83018561271a565b6127da6103208301846127a9565b9392505050565b5f6020820190506127f45f8301846127a9565b92915050565b5f6020828403121561280f5761280e6122ee565b5b5f61281c84828501612314565b91505092915050565b5f81519050919050565b5f82825260208201905092915050565b5f819050602082019050919050565b61032082015f8201516128635f8501826123e9565b506020820151612876602085018261245c565b506040820151612889604085018261249b565b50606082015161289c606085018261249b565b5060808201516128af6080850182612537565b5060a08201516128c36101e08501826125c4565b5060c08201516128d76102408501826126b4565b50505050565b5f6128e8838361284e565b6103208301905092915050565b5f602082019050919050565b5f61290b82612825565b612915818561282f565b93506129208361283f565b805f5b8381101561295057815161293788826128dd565b9750612942836128f5565b925050600181019050612923565b5085935050505092915050565b5f6020820190508181035f8301526129758184612901565b905092915050565b5f8060408385031215612993576129926122ee565b5b5f6129a085828601612314565b92505060206129b1858286016123aa565b9150509250929050565b5f819050826020600202820111156129d6576129d5612328565b5b92915050565b5f80606083850312156129f2576129f16122ee565b5b5f6129ff85828601612314565b9250506020612a10858286016129bb565b9150509250929050565b612a23816124b9565b8114612a2d575f80fd5b50565b5f81359050612a3e81612a1a565b92915050565b5f8060408385031215612a5a57612a596122ee565b5b5f612a6785828601612314565b9250506020612a7885828601612a30565b9150509250929050565b5f82825260208201905092915050565b7f42303000000000000000000000000000000000000000000000000000000000005f82015250565b5f612ac6600383612a82565b9150612ad182612a92565b602082019050919050565b5f6020820190508181035f830152612af381612aba565b9050919050565b7f42303100000000000000000000000000000000000000000000000000000000005f82015250565b5f612b2e600383612a82565b9150612b3982612afa565b602082019050919050565b5f6020820190508181035f830152612b5b81612b22565b9050919050565b7f4e487b71000000000000000000000000000000000000000000000000000000005f52601160045260245ffd5b5f612b99826122f2565b9150612ba4836122f2565b9250828201905060ff811115612bbd57612bbc612b62565b5b92915050565b7f4e487b71000000000000000000000000000000000000000000000000000000005f52603260045260245ffd5b5f612bfa826122f2565b9150612c05836122f2565b9250828202612c13816122f2565b9150808214612c2557612c24612b62565b5b5092915050565b5f612c36826122f2565b915060ff8203612c4957612c48612b62565b5b600182019050919050565b7f42303300000000000000000000000000000000000000000000000000000000005f82015250565b5f612c88600383612a82565b9150612c9382612c54565b602082019050919050565b5f6020820190508181035f830152612cb581612c7c565b9050919050565b7f4e487b71000000000000000000000000000000000000000000000000000000005f52601260045260245ffd5b5f612cf3826122f2565b9150612cfe836122f2565b925082612d0e57612d0d612cbc565b5b828204905092915050565b7f424f3400000000000000000000000000000000000000000000000000000000005f82015250565b5f612d4d600383612a82565b9150612d5882612d19565b602082019050919050565b5f6020820190508181035f830152612d7a81612d41565b9050919050565b5f612d8b8261238b565b91507fffffffffffffffffffffffffffffffffffffffffffffffffffffffffffffffff8203612dbd57612dbc612b62565b5b600182019050919050565b7f47303000000000000000000000000000000000000000000000000000000000005f82015250565b5f612dfc600383612a82565b9150612e0782612dc8565b602082019050919050565b5f6020820190508181035f830152612e2981612df0565b9050919050565b7f47303100000000000000000000000000000000000000000000000000000000005f82015250565b5f612e64600383612a82565b9150612e6f82612e30565b602082019050919050565b5f6020820190508181035f830152612e9181612e58565b9050919050565b7f47303200000000000000000000000000000000000000000000000000000000005f82015250565b5f612ecc600383612a82565b9150612ed782612e98565b602082019050919050565b5f6020820190508181035f830152612ef981612ec0565b9050919050565b7f4e487b71000000000000000000000000000000000000000000000000000000005f52604160045260245ffd5b7f47303300000000000000000000000000000000000000000000000000000000005f82015250565b5f612f61600383612a82565b9150612f6c82612f2d565b602082019050919050565b5f6020820190508181035f830152612f8e81612f55565b9050919050565b7f47303500000000000000000000000000000000000000000000000000000000005f82015250565b5f612fc9600383612a82565b9150612fd482612f95565b602082019050919050565b5f6020820190508181035f830152612ff681612fbd565b9050919050565b7f47303600000000000000000000000000000000000000000000000000000000005f82015250565b5f613031600383612a82565b915061303c82612ffd565b602082019050919050565b5f6020820190508181035f83015261305e81613025565b9050919050565b7f47303700000000000000000000000000000000000000000000000000000000005f82015250565b5f613099600383612a82565b91506130a482613065565b602082019050919050565b5f6020820190508181035f8301526130c68161308d565b9050919050565b7f47313000000000000000000000000000000000000000000000000000000000005f82015250565b5f613101600383612a82565b915061310c826130cd565b602082019050919050565b5f6020820190508181035f83015261312e816130f5565b9050919050565b7f47313100000000000000000000000000000000000000000000000000000000005f82015250565b5f613169600383612a82565b915061317482613135565b602082019050919050565b5f6020820190508181035f8301526131968161315d565b9050919050565b7f47303800000000000000000000000000000000000000000000000000000000005f82015250565b5f6131d1600383612a82565b91506131dc8261319d565b602082019050919050565b5f6020820190508181035f8301526131fe816131c5565b9050919050565b7f47303900000000000000000000000000000000000000000000000000000000005f82015250565b5f613239600383612a82565b915061324482613205565b602082019050919050565b5f6020820190508181035f8301526132668161322d565b9050919050565b7f47303400000000000000000000000000000000000000000000000000000000005f82015250565b5f6132a1600383612a82565b91506132ac8261326d565b602082019050919050565b5f6020820190508181035f8301526132ce81613295565b905091905056fea2646970667358221220757dbf8221f46c09fda9b721af682d8541bbf2177da51af6e6afd25ca7b9dcf164736f6c63430008150033",
  "immutableReferences": {},
  "source": "// SPDX-License-Identifier: MIT\r\npragma solidity ^0.8.0;\r\n\r\ncontract Battleship {\r\n\r\n    // ########## DATA ##########\r\n\r\n    uint private constant SHIP_TYPES = 5;\r\n    uint256 private constant MAX_BET_AMOUNT = 100000000000000000000;\r\n\r\n    // keeps track of the total number of games created to serve as unique ID\r\n    uint gamesCreated;\r\n\r\n    // struct containing information regarding the boards\r\n    struct BoardInfo {\r\n        uint8 boardSize;\r\n        bytes32 hostRoot;\r\n        bytes32 guestRoot;\r\n        uint8 hostHp;\r\n        uint8 guestHp;\r\n        uint8 totalHp;\r\n        ShipInfo shipInfo;\r\n    }\r\n\r\n    // struct containing information regarding the number and type of ships\r\n    struct ShipInfo {\r\n        uint8 oneNum;\r\n        uint8 twoNum;\r\n        uint8 threeNum;\r\n        uint8 fourNum;\r\n        uint8 fiveNum;\r\n    }\r\n\r\n    // struct containing information regarding the bets placed from the players\r\n    struct BetInfo {\r\n        uint256 amount;\r\n        uint256 hostAmount;\r\n        uint256 guestAmount;\r\n    }\r\n\r\n    // struct containing information about the players' moves\r\n    struct MoveInfo {\r\n        bool isHostTurn;\r\n        uint8[2] hostLastMove;\r\n        uint8[2] guestLastMove;\r\n        uint hostLastMoveTime;\r\n        uint guestLastMoveTime;\r\n    }\r\n\r\n    // ADT for the game linked-list\r\n    struct Game {\r\n        GameInfo info;\r\n        uint next;\r\n    }\r\n    mapping(uint => Game) public gamesMap;  // enables the linking of games\r\n    uint public head;    // head of the linked list containing games\r\n    uint listLen;  // keeps track of how many games are currently in the list\r\n\r\n    // enum representing the different possible game states\r\n    enum GameState{UNINITIALIZED, CREATED, BETTING, PLACEMENT, STARTED, FINISHED}\r\n\r\n    // struct abstracting the information of a game of battleship\r\n    struct GameInfo {\r\n        uint gameId;\r\n        GameState gameState;\r\n        address host;\r\n        address guest;\r\n        BoardInfo boardInfo;\r\n        BetInfo betInfo;\r\n        MoveInfo moveInfo;\r\n    }\r\n\r\n\r\n\r\n    // ########## EVENTS ##########\r\n\r\n    event GameJoined(uint indexed gameId, address host, address guest); // notifies the host that a guest has joined the game\r\n    event BetPlaced(uint indexed gameId, address better, uint256 amount, bool amountSet);   // notifies the players that someone placed a bet on the game\r\n    event GameStarted(uint indexed gameId, address host, address guest, bytes32 hostRoot, bytes32 guestRoot); // notifies the players that the game has started\r\n    event MovePlayed(uint indexed gameId, address player, uint8[2] move);   // notifies the other player that a move has been played\r\n\r\n\r\n\r\n    // ########## METHODS ##########\r\n\r\n    // constructor method\r\n    constructor() {\r\n        gamesCreated = 0;\r\n        listLen = 0;\r\n        head = 0;\r\n    }\r\n\r\n    // allows the host to register a new game of battleship\r\n    function createGame(uint8 boardSize, uint8[5] calldata shipsNum) public {\r\n        require(boardSize >= 4, \"B00\");  // board dim too small\r\n        require(boardSize <= 8, \"B01\");  // board dim too big\r\n\r\n        uint8 totalHp = 0;   // total number of \"ship pieces\"\r\n\r\n        for(uint8 i=0; i < SHIP_TYPES; i++) {\r\n            // adding the number of \"ship pieces\"\r\n            totalHp = totalHp + shipsNum[i]*(i+1);\r\n        }\r\n\r\n        require(totalHp > 0, \"B03\");    // number of \"ship pieces\" has to be > 0\r\n\r\n        require(totalHp <= (boardSize*boardSize)/2, \"BO4\");  // too many \"ship pieces\" for the board dimension\r\n\r\n        // building the struct containing information on the ships\r\n        ShipInfo memory shipInfo = ShipInfo(shipsNum[0], shipsNum[1], shipsNum [2], shipsNum[3], shipsNum[4]);\r\n\r\n        uint id = ++gamesCreated; // getting the game id and updating the number of games created until now\r\n\r\n        // building the struct containing information on the game\r\n        GameInfo memory gameInfo = GameInfo(\r\n            id,\r\n            GameState.CREATED,\r\n            msg.sender,\r\n            address(0),\r\n            BoardInfo(\r\n                boardSize,\r\n                \"\",\r\n                \"\",\r\n                totalHp,\r\n                totalHp,\r\n                totalHp,\r\n                shipInfo\r\n            ),\r\n            BetInfo(0, 0, 0),\r\n            MoveInfo(true, [0,0], [0,0], 0, 0)\r\n        );\r\n\r\n        // adding the newly created game to the game list and mapping\r\n        addGame(gameInfo);\r\n    }\r\n\r\n    // adds a game to the games list and mapping\r\n    function addGame(GameInfo memory info) internal {\r\n        Game memory game = Game(info, head);    // creating the new game object\r\n        \r\n        gamesMap[info.gameId] = game;   // inserting the game id in the mapping, to link it to the list\r\n        head = info.gameId;  // updating the list's head\r\n        \r\n        listLen++;  // updating the number of games currently in the list\r\n        // EMIT game created event\r\n    }\r\n\r\n    // allows the guest player to join the game\r\n    function joinGame(uint8 gameId) public {\r\n        require(gamesMap[gameId].info.gameState == GameState.CREATED, \"G00\");  // only games in the \"CREATED\" state can be joined\r\n        require(msg.sender != gamesMap[gameId].info.host, \"G01\");   // Host cannot join his own game\r\n        require(gamesMap[gameId].info.guest == address(0), \"G02\");  // No one should've already joined the game\r\n\r\n        gamesMap[gameId].info.guest = msg.sender;   // setting the guest player\r\n        gamesMap[gameId].info.gameState = GameState.BETTING;    // updating the game to the betting phase \r\n    }\r\n\r\n    // allows the players to place their bets\r\n    function placeBet(uint8 gameId, uint256 amount) public {\r\n        require(gamesMap[gameId].info.gameState == GameState.BETTING, \"G03\");  // only games in the \"BETTING\" state can receive bets\r\n        require(isPlayer(gameId) == true, \"G05\");    // the tx sender is not a player\r\n        require(amount > 0, \"G06\"); // bet cannot be 0\r\n        require(amount <= MAX_BET_AMOUNT, \"G07\");   // amount too low\r\n\r\n\r\n        bool amountSet = false; // set to true when the players have agreed on the amount\r\n        if(msg.sender == gamesMap[gameId].info.host) gamesMap[gameId].info.betInfo.hostAmount = amount;\r\n        else if (msg.sender == gamesMap[gameId].info.guest) gamesMap[gameId].info.betInfo.guestAmount = amount;\r\n\r\n        if(gamesMap[gameId].info.betInfo.hostAmount == gamesMap[gameId].info.betInfo.guestAmount) {\r\n            // if the players have agreed on a bet, proceed to the placement phase\r\n            gamesMap[gameId].info.gameState = GameState.PLACEMENT;\r\n            amountSet = true;\r\n        }\r\n\r\n        // EMIT bet placed event (hostamount, guestamount, amountSet)\r\n    }\r\n\r\n    // allows the players to submit the merkle root of their boards\r\n    function submitBoard(uint8 gameId, bytes32 merkleRoot) public {\r\n        require(gamesMap[gameId].info.gameState == GameState.PLACEMENT, \"G08\"); // game has to be in \"PLACEMENT\" state\r\n        require(isPlayer(gameId), \"G05\");   // the tx sender is not a player\r\n\r\n        if(msg.sender == gamesMap[gameId].info.host) {\r\n            require(gamesMap[gameId].info.boardInfo.hostRoot == \"\", \"G09\");   // the root can only be submitted once\r\n            gamesMap[gameId].info.boardInfo.hostRoot = merkleRoot;    // updating the host's merkle root\r\n        }\r\n        else if(msg.sender == gamesMap[gameId].info.guest) {\r\n            require(gamesMap[gameId].info.boardInfo.guestRoot == \"\", \"G09\");   // the root can only be submitted once\r\n            gamesMap[gameId].info.boardInfo.guestRoot = merkleRoot;   // updating the guest's merkle root\r\n        }\r\n\r\n        if(gamesMap[gameId].info.boardInfo.hostRoot != \"\" && gamesMap[gameId].info.boardInfo.guestRoot != \"\") {\r\n            gamesMap[gameId].info.gameState = GameState.STARTED;\r\n            // emit event game created gameId\r\n        }\r\n    }\r\n\r\n    // allows the players to register a new move in their turn\r\n    function playMove(uint8 gameId, uint8[2] calldata move) public {\r\n        require(gamesMap[gameId].info.gameState == GameState.STARTED);  // game has to be started in order to play\r\n        require(isPlayer(gameId), \"G05\");   // the tx sender is not a player\r\n        require(    // not the player's turn\r\n            (gamesMap[gameId].info.moveInfo.isHostTurn && msg.sender == gamesMap[gameId].info.host) ||\r\n            (!gamesMap[gameId].info.moveInfo.isHostTurn && msg.sender == gamesMap[gameId].info.guest),\r\n            \"G10\"\r\n        );\r\n        require((move[0] <= gamesMap[gameId].info.boardInfo.boardSize) &&\r\n                (move[1] <= gamesMap[gameId].info.boardInfo.boardSize), \"G11\"); // invalid board index\r\n\r\n        if(msg.sender == gamesMap[gameId].info.host) {\r\n            gamesMap[gameId].info.moveInfo.hostLastMove[0] = move[0];\r\n            gamesMap[gameId].info.moveInfo.hostLastMove[1] = move[1];\r\n        }\r\n        else if(msg.sender == gamesMap[gameId].info.guest) {\r\n            gamesMap[gameId].info.moveInfo.guestLastMove[0] = move[0];\r\n            gamesMap[gameId].info.moveInfo.guestLastMove[1] = move[1];\r\n        }\r\n\r\n        // emit move event\r\n    }\r\n\r\n    // returns the list of all ongoing games\r\n    function getAllGames() public view returns (GameInfo[] memory) {\r\n        GameInfo[] memory currGames = new GameInfo[](listLen);\r\n        uint pointer = head;    // \"pointer\" to the first game of the list\r\n        uint8 i = 0;    // counter\r\n\r\n        while(pointer != 0) {   // iterates until the end of the games list\r\n            currGames[i++] = gamesMap[pointer].info;\r\n            pointer = gamesMap[pointer].next;\r\n        }\r\n\r\n        return currGames;\r\n    }\r\n\r\n    // AUXILIARY FUNCTIONS ##########\r\n    function isPlayer(uint8 gameId) internal view returns(bool) {\r\n        require(gamesMap[gameId].info.gameState != GameState.UNINITIALIZED &&\r\n                gamesMap[gameId].info.gameState != GameState.FINISHED, \"G04\");  // game already finished\r\n        \r\n        if(msg.sender == gamesMap[gameId].info.host || msg.sender == gamesMap[gameId].info.guest) return true;\r\n        else return false;\r\n    }\r\n}",
  "sourcePath": "C:\\Users\\thene\\Coding\\Solidity\\smart-battleship\\contracts\\battleship.sol",
  "compiler": {
    "name": "solc",
    "version": "0.8.21+commit.d9974bed.Emscripten.clang"
  },
  "schemaVersion": "3.4.16",
  "updatedAt": "2024-03-07T14:41:06.409Z",
  "devdoc": {
    "kind": "dev",
    "methods": {},
    "version": 1
  },
  "userdoc": {
    "kind": "user",
    "methods": {},
    "version": 1
  }
}